{"abi":[{"type":"constructor","inputs":[],"stateMutability":"nonpayable"},{"type":"function","name":"EMPTY_TODO","inputs":[],"outputs":[{"name":"todoID","type":"uint256","internalType":"uint256"},{"name":"todoTitle","type":"string","internalType":"string"},{"name":"todoDescription","type":"string","internalType":"string"},{"name":"completed","type":"bool","internalType":"bool"},{"name":"todoOwner","type":"address","internalType":"address"}],"stateMutability":"view"},{"type":"function","name":"compareStringsbyBytes","inputs":[{"name":"s1","type":"string","internalType":"string"},{"name":"s2","type":"string","internalType":"string"}],"outputs":[{"name":"","type":"bool","internalType":"bool"}],"stateMutability":"pure"},{"type":"function","name":"createTodo","inputs":[{"name":"_todoTitle","type":"string","internalType":"string"},{"name":"_todoDescription","type":"string","internalType":"string"}],"outputs":[],"stateMutability":"nonpayable"},{"type":"function","name":"deleteTodo","inputs":[{"name":"_todoId","type":"uint256","internalType":"uint256"}],"outputs":[],"stateMutability":"nonpayable"},{"type":"function","name":"getTodo","inputs":[{"name":"_todoId","type":"uint256","internalType":"uint256"}],"outputs":[{"name":"","type":"tuple","internalType":"struct Todos.TodoItem","components":[{"name":"todoID","type":"uint256","internalType":"uint256"},{"name":"todoTitle","type":"string","internalType":"string"},{"name":"todoDescription","type":"string","internalType":"string"},{"name":"completed","type":"bool","internalType":"bool"},{"name":"todoOwner","type":"address","internalType":"address"}]}],"stateMutability":"view"},{"type":"function","name":"getTodosByOwner","inputs":[{"name":"_owner","type":"address","internalType":"address"}],"outputs":[{"name":"","type":"tuple[]","internalType":"struct Todos.TodoItem[]","components":[{"name":"todoID","type":"uint256","internalType":"uint256"},{"name":"todoTitle","type":"string","internalType":"string"},{"name":"todoDescription","type":"string","internalType":"string"},{"name":"completed","type":"bool","internalType":"bool"},{"name":"todoOwner","type":"address","internalType":"address"}]}],"stateMutability":"view"},{"type":"function","name":"ownerToTodos","inputs":[{"name":"","type":"address","internalType":"address"},{"name":"","type":"uint256","internalType":"uint256"}],"outputs":[{"name":"todoID","type":"uint256","internalType":"uint256"},{"name":"todoTitle","type":"string","internalType":"string"},{"name":"todoDescription","type":"string","internalType":"string"},{"name":"completed","type":"bool","internalType":"bool"},{"name":"todoOwner","type":"address","internalType":"address"}],"stateMutability":"view"},{"type":"function","name":"todoIncrement","inputs":[],"outputs":[{"name":"","type":"uint256","internalType":"uint256"}],"stateMutability":"view"},{"type":"function","name":"todos","inputs":[{"name":"","type":"uint256","internalType":"uint256"}],"outputs":[{"name":"todoID","type":"uint256","internalType":"uint256"},{"name":"todoTitle","type":"string","internalType":"string"},{"name":"todoDescription","type":"string","internalType":"string"},{"name":"completed","type":"bool","internalType":"bool"},{"name":"todoOwner","type":"address","internalType":"address"}],"stateMutability":"view"},{"type":"function","name":"updateTodo","inputs":[{"name":"_todoId","type":"uint256","internalType":"uint256"},{"name":"_todoTitle","type":"string","internalType":"string"},{"name":"_todoDescription","type":"string","internalType":"string"}],"outputs":[],"stateMutability":"nonpayable"},{"type":"event","name":"TodoCreated","inputs":[{"name":"todoId","type":"uint256","indexed":true,"internalType":"uint256"}],"anonymous":false},{"type":"event","name":"TodoDeleted","inputs":[{"name":"todoId","type":"uint256","indexed":true,"internalType":"uint256"}],"anonymous":false},{"type":"event","name":"TodoUpdated","inputs":[{"name":"todoId","type":"uint256","indexed":true,"internalType":"uint256"}],"anonymous":false}],"bytecode":{"object":"0x5f608081815261012082815260a081905261016060405261014083815260c05260e083905261010083905282805590919060019061003d9082610206565b50604082015160028201906100529082610206565b506060820151600390910180546080909301516001600160a01b031661010002610100600160a81b0319921515929092166001600160a81b03199093169290921717905560016005553480156100a6575f5ffd5b505f808052600460205280547f17ef568e3e12ab5b9c7254a8d58478811de00f9e6eb34345acd53bf8fd09d3ec9081557f17ef568e3e12ab5b9c7254a8d58478811de00f9e6eb34345acd53bf8fd09d3ed6101026001826102c3565b50600281810190610115908401826102c3565b506003918201805491909201805460ff909216151560ff1983168117825592546001600160a01b03610100918290041602610100600160a81b03199093166001600160a81b03199092169190911791909117905561038f565b634e487b7160e01b5f52604160045260245ffd5b600181811c9082168061019657607f821691505b6020821081036101b457634e487b7160e01b5f52602260045260245ffd5b50919050565b601f82111561020157805f5260205f20601f840160051c810160208510156101df5750805b601f840160051c820191505b818110156101fe575f81556001016101eb565b50505b505050565b81516001600160401b0381111561021f5761021f61016e565b6102338161022d8454610182565b846101ba565b6020601f821160018114610268575f831561024e5750848201515b600184901b5f19600386901b1c198216175b8555506101fe565b5f84815260208120601f198516915b828110156102975787850151825560209485019460019092019101610277565b50848210156102b457868401515f19600387901b60f8161c191681555b50505050600190811b01905550565b8181036102ce575050565b6102d88254610182565b6001600160401b038111156102ef576102ef61016e565b6102fd8161022d8454610182565b5f601f82116001811461032c575f831561024e575081850154600184901b5f19600386901b1c19821617610260565b5f8581526020808220868352908220601f198616925b838110156103625782860154825560019586019590910190602001610342565b508583101561037f57818501545f19600388901b60f8161c191681555b5050505050600190811b01905550565b6114418061039c5f395ff3fe608060405234801561000f575f5ffd5b506004361061009b575f3560e01c8063b7c4788c11610063578063b7c4788c1461011a578063bc8bc2b414610122578063cb945e3714610135578063dd68afb614610155578063e9a734ff14610175575f5ffd5b80633380b99f1461009f5780636e3c6738146100b457806381e94199146100c7578063a65946df146100da578063b6d95cc3146100f6575b5f5ffd5b6100b26100ad366004610ef9565b610198565b005b6100b26100c2366004610f5e565b610334565b6100b26100d5366004610f75565b610686565b6100e360055481565b6040519081526020015b60405180910390f35b610109610104366004610ffd565b6108d3565b6040516100ed959493929190611053565b610109610a39565b610109610130366004610f5e565b610a4c565b6101486101433660046110a0565b610a6d565b6040516100ed9190611122565b610168610163366004610f5e565b610c34565b6040516100ed9190611179565b610188610183366004610ef9565b610e02565b60405190151581526020016100ed565b600580545f91826101a88361118b565b909155506040805160a08101825282815260208082018781528284018790525f6060840181905233608085015285815260049092529290208151815591519293509182919060018201906101fc9082611233565b50604082015160028201906102119082611233565b506060820151600390910180546080909301516001600160a01b031661010002610100600160a81b0319921515929092166001600160a81b031990931692909217179055335f9081526006602090815260408083208584526004808452918420815460018181018455928652939094208454939092029091019182558181019061029d908401826112f1565b506002818101906102b0908401826112f1565b506003918201805491909201805460ff909216151560ff1983168117825592546001600160a01b03610100918290041602610100600160a81b03199093166001600160a81b03199092169190911791909117905560405182907f969587c10fd1c8e896dbd62c20606e6b46069c3bb75f2a19faed07bf2f936868905f90a250505050565b60055481111561035f5760405162461bcd60e51b8152600401610356906113be565b60405180910390fd5b5f60045f8381526020019081526020015f206040518060a00160405290815f8201548152602001600182018054610395906111af565b80601f01602080910402602001604051908101604052809291908181526020018280546103c1906111af565b801561040c5780601f106103e35761010080835404028352916020019161040c565b820191905f5260205f20905b8154815290600101906020018083116103ef57829003601f168201915b50505050508152602001600282018054610425906111af565b80601f0160208091040260200160405190810160405280929190818152602001828054610451906111af565b801561049c5780601f106104735761010080835404028352916020019161049c565b820191905f5260205f20905b81548152906001019060200180831161047f57829003601f168201915b50505091835250506003919091015460ff811615156020808401919091526101009091046001600160a01b03166040909201919091528101516001805492935061056a926104e9906111af565b80601f0160208091040260200160405190810160405280929190818152602001828054610515906111af565b80156105605780601f1061053757610100808354040283529160200191610560565b820191905f5260205f20905b81548152906001019060200180831161054357829003601f168201915b5050505050610e02565b15801561058b575061058981604001515f60020180546104e9906111af565b155b6105d05760405162461bcd60e51b81526020600482015260166024820152752a37b2379034b99030b63932b0b23c9032b6b83a3c9760511b6044820152606401610356565b5f828152600460205260408120815481556001808201906105f190826112f1565b50600281810190610604908401826112f1565b506003918201805491909201805460ff909216151560ff1983168117825592546001600160a01b03610100918290041602610100600160a81b03199093166001600160a81b03199092169190911791909117905560405182907f1072e4eeea43a52d09f5b6dfc870a079948f706133840ce9239aebc57fabb65f905f90a25050565b6005548311156106a85760405162461bcd60e51b8152600401610356906113be565b5f60045f8581526020019081526020015f206040518060a00160405290815f82015481526020016001820180546106de906111af565b80601f016020809104026020016040519081016040528092919081815260200182805461070a906111af565b80156107555780601f1061072c57610100808354040283529160200191610755565b820191905f5260205f20905b81548152906001019060200180831161073857829003601f168201915b5050505050815260200160028201805461076e906111af565b80601f016020809104026020016040519081016040528092919081815260200182805461079a906111af565b80156107e55780601f106107bc576101008083540402835291602001916107e5565b820191905f5260205f20905b8154815290600101906020018083116107c857829003601f168201915b50505091835250506003919091015460ff811615156020808401919091526101009091046001600160a01b03166040928301528281018681528383018690525f88815260049092529190208251815590519192508291600182019061084a9082611233565b506040820151600282019061085f9082611233565b506060820151600390910180546080909301516001600160a01b031661010002610100600160a81b0319921515929092166001600160a81b03199093169290921717905560405184907fb8882fb2e94fcb7f70fbbdf7d256b863aba9b6ad05ecb0b9926fb408c64892c2905f90a250505050565b6006602052815f5260405f2081815481106108ec575f80fd5b905f5260205f2090600402015f9150915050805f015490806001018054610912906111af565b80601f016020809104026020016040519081016040528092919081815260200182805461093e906111af565b80156109895780601f1061096057610100808354040283529160200191610989565b820191905f5260205f20905b81548152906001019060200180831161096c57829003601f168201915b50505050509080600201805461099e906111af565b80601f01602080910402602001604051908101604052809291908181526020018280546109ca906111af565b8015610a155780601f106109ec57610100808354040283529160200191610a15565b820191905f5260205f20905b8154815290600101906020018083116109f857829003601f168201915b5050506003909301549192505060ff8116906001600160a01b036101009091041685565b5f805460018054919291610912906111af565b60046020525f908152604090208054600182018054919291610912906111af565b6001600160a01b0381165f908152600660209081526040808320805482518185028101850190935280835260609493849084015b82821015610c28578382905f5260205f2090600402016040518060a00160405290815f8201548152602001600182018054610adb906111af565b80601f0160208091040260200160405190810160405280929190818152602001828054610b07906111af565b8015610b525780601f10610b2957610100808354040283529160200191610b52565b820191905f5260205f20905b815481529060010190602001808311610b3557829003601f168201915b50505050508152602001600282018054610b6b906111af565b80601f0160208091040260200160405190810160405280929190818152602001828054610b97906111af565b8015610be25780601f10610bb957610100808354040283529160200191610be2565b820191905f5260205f20905b815481529060010190602001808311610bc557829003601f168201915b50505091835250506003919091015460ff811615156020808401919091526101009091046001600160a01b03166040909201919091529082526001929092019101610aa1565b50929695505050505050565b610c6e6040518060a001604052805f815260200160608152602001606081526020015f151581526020015f6001600160a01b031681525090565b600554821115610c905760405162461bcd60e51b8152600401610356906113be565b5f60045f8481526020019081526020015f206040518060a00160405290815f8201548152602001600182018054610cc6906111af565b80601f0160208091040260200160405190810160405280929190818152602001828054610cf2906111af565b8015610d3d5780601f10610d1457610100808354040283529160200191610d3d565b820191905f5260205f20905b815481529060010190602001808311610d2057829003601f168201915b50505050508152602001600282018054610d56906111af565b80601f0160208091040260200160405190810160405280929190818152602001828054610d82906111af565b8015610dcd5780601f10610da457610100808354040283529160200191610dcd565b820191905f5260205f20905b815481529060010190602001808311610db057829003601f168201915b50505091835250506003919091015460ff81161515602083015261010090046001600160a01b03166040909101529392505050565b5f81604051602001610e1491906113f5565b6040516020818303038152906040528051906020012083604051602001610e3b91906113f5565b6040516020818303038152906040528051906020012014905092915050565b634e487b7160e01b5f52604160045260245ffd5b5f82601f830112610e7d575f5ffd5b813567ffffffffffffffff811115610e9757610e97610e5a565b604051601f8201601f19908116603f0116810167ffffffffffffffff81118282101715610ec657610ec6610e5a565b604052818152838201602001851015610edd575f5ffd5b816020850160208301375f918101602001919091529392505050565b5f5f60408385031215610f0a575f5ffd5b823567ffffffffffffffff811115610f20575f5ffd5b610f2c85828601610e6e565b925050602083013567ffffffffffffffff811115610f48575f5ffd5b610f5485828601610e6e565b9150509250929050565b5f60208284031215610f6e575f5ffd5b5035919050565b5f5f5f60608486031215610f87575f5ffd5b83359250602084013567ffffffffffffffff811115610fa4575f5ffd5b610fb086828701610e6e565b925050604084013567ffffffffffffffff811115610fcc575f5ffd5b610fd886828701610e6e565b9150509250925092565b80356001600160a01b0381168114610ff8575f5ffd5b919050565b5f5f6040838503121561100e575f5ffd5b61101783610fe2565b946020939093013593505050565b5f81518084528060208401602086015e5f602082860101526020601f19601f83011685010191505092915050565b85815260a060208201525f61106b60a0830187611025565b828103604084015261107d8187611025565b941515606084015250506001600160a01b03919091166080909101529392505050565b5f602082840312156110b0575f5ffd5b6110b982610fe2565b9392505050565b805182525f602082015160a060208501526110de60a0850182611025565b9050604083015184820360408601526110f78282611025565b6060858101511515908701526080948501516001600160a01b03169490950193909352509192915050565b5f602082016020835280845180835260408501915060408160051b8601019250602086015f5b82811015610c2857603f198786030184526111648583516110c0565b94506020938401939190910190600101611148565b602081525f6110b960208301846110c0565b5f600182016111a857634e487b7160e01b5f52601160045260245ffd5b5060010190565b600181811c908216806111c357607f821691505b6020821081036111e157634e487b7160e01b5f52602260045260245ffd5b50919050565b601f82111561122e57805f5260205f20601f840160051c8101602085101561120c5750805b601f840160051c820191505b8181101561122b575f8155600101611218565b50505b505050565b815167ffffffffffffffff81111561124d5761124d610e5a565b6112618161125b84546111af565b846111e7565b6020601f821160018114611296575f831561127c5750848201515b600184901b5f19600386901b1c198216175b85555061122b565b5f84815260208120601f198516915b828110156112c557878501518255602094850194600190920191016112a5565b50848210156112e257868401515f19600387901b60f8161c191681555b50505050600190811b01905550565b8181036112fc575050565b61130682546111af565b67ffffffffffffffff81111561131e5761131e610e5a565b61132c8161125b84546111af565b5f601f82116001811461135b575f831561127c575081850154600184901b5f19600386901b1c1982161761128e565b5f8581526020808220868352908220601f198616925b838110156113915782860154825560019586019590910190602001611371565b50858310156113ae57818501545f19600388901b60f8161c191681555b5050505050600190811b01905550565b60208082526019908201527f546f646f206974656d20646f6573206e6f742065786973742100000000000000604082015260600190565b5f82518060208501845e5f92019182525091905056fea26469706673582212200d2e518edfe5a0455d3b799c18ffaf8b52287845282fbe99a44a1c980bfd4ba764736f6c634300081c0033","linkReferences":{}},"methodIdentifiers":{"EMPTY_TODO()":"b7c4788c","compareStringsbyBytes(string,string)":"e9a734ff","createTodo(string,string)":"3380b99f","deleteTodo(uint256)":"6e3c6738","getTodo(uint256)":"dd68afb6","getTodosByOwner(address)":"cb945e37","ownerToTodos(address,uint256)":"b6d95cc3","todoIncrement()":"a65946df","todos(uint256)":"bc8bc2b4","updateTodo(uint256,string,string)":"81e94199"},"id":18}